{
  "contractName": "PoliceCaseManagement",
  "abi": [
    {
      "anonymous": false,
      "inputs": [
        {
          "indexed": false,
          "internalType": "string",
          "name": "firNumber",
          "type": "string"
        },
        {
          "indexed": false,
          "internalType": "uint256",
          "name": "timestamp",
          "type": "uint256"
        }
      ],
      "name": "CaseCreated",
      "type": "event"
    },
    {
      "anonymous": false,
      "inputs": [
        {
          "indexed": false,
          "internalType": "string",
          "name": "firNumber",
          "type": "string"
        },
        {
          "indexed": false,
          "internalType": "string",
          "name": "caseStatus",
          "type": "string"
        },
        {
          "indexed": false,
          "internalType": "uint256",
          "name": "timestamp",
          "type": "uint256"
        }
      ],
      "name": "CaseUpdated",
      "type": "event"
    },
    {
      "inputs": [
        {
          "internalType": "bytes32",
          "name": "",
          "type": "bytes32"
        }
      ],
      "name": "cases",
      "outputs": [
        {
          "internalType": "string",
          "name": "firNumber",
          "type": "string"
        },
        {
          "internalType": "string",
          "name": "evidenceHash",
          "type": "string"
        },
        {
          "internalType": "string",
          "name": "forensicsHash",
          "type": "string"
        },
        {
          "internalType": "string",
          "name": "caseStatus",
          "type": "string"
        },
        {
          "internalType": "uint256",
          "name": "timestamp",
          "type": "uint256"
        }
      ],
      "stateMutability": "view",
      "type": "function",
      "constant": true
    },
    {
      "inputs": [
        {
          "internalType": "string",
          "name": "firNumber",
          "type": "string"
        },
        {
          "internalType": "string",
          "name": "evidenceHash",
          "type": "string"
        },
        {
          "internalType": "string",
          "name": "forensicsHash",
          "type": "string"
        },
        {
          "internalType": "string",
          "name": "caseStatus",
          "type": "string"
        }
      ],
      "name": "createCase",
      "outputs": [],
      "stateMutability": "nonpayable",
      "type": "function"
    },
    {
      "inputs": [
        {
          "internalType": "string",
          "name": "firNumber",
          "type": "string"
        },
        {
          "internalType": "string",
          "name": "caseStatus",
          "type": "string"
        }
      ],
      "name": "updateCaseStatus",
      "outputs": [],
      "stateMutability": "nonpayable",
      "type": "function"
    },
    {
      "inputs": [
        {
          "internalType": "string",
          "name": "firNumber",
          "type": "string"
        }
      ],
      "name": "getCase",
      "outputs": [
        {
          "internalType": "string",
          "name": "fir",
          "type": "string"
        },
        {
          "internalType": "string",
          "name": "evidence",
          "type": "string"
        },
        {
          "internalType": "string",
          "name": "forensics",
          "type": "string"
        },
        {
          "internalType": "string",
          "name": "status",
          "type": "string"
        },
        {
          "internalType": "uint256",
          "name": "timestamp",
          "type": "uint256"
        }
      ],
      "stateMutability": "view",
      "type": "function",
      "constant": true
    }
  ],
  "bytecode": "0x608060405234801561000f575f80fd5b506110b38061001d5f395ff3fe608060405234801561000f575f80fd5b506004361061004a575f3560e01c80631d5811ba1461004e57806348ea1c231461006a578063d4e068261461009e578063dae5611b146100d2575b5f80fd5b6100686004803603810190610063919061099d565b6100ee565b005b610084600480360381019061007f9190610aa4565b6101f2565b604051610095959493929190610b61565b60405180910390f35b6100b860048036038101906100b39190610bce565b61043b565b6040516100c9959493929190610b61565b60405180910390f35b6100ec60048036038101906100e79190610c15565b610760565b005b5f846040516020016101009190610cc5565b6040516020818303038152906040528051906020012090506040518060a00160405280868152602001858152602001848152602001838152602001428152505f808381526020019081526020015f205f820151815f0190816101629190610ed5565b5060208201518160010190816101789190610ed5565b50604082015181600201908161018e9190610ed5565b5060608201518160030190816101a49190610ed5565b50608082015181600401559050507f61db2bee1b6a5c4c35bc25d487944f36be7bd1e5eb0c771d4a4a9c8cc43175e985426040516101e3929190610fa4565b60405180910390a15050505050565b5f602052805f5260405f205f91509050805f01805461021090610d08565b80601f016020809104026020016040519081016040528092919081815260200182805461023c90610d08565b80156102875780601f1061025e57610100808354040283529160200191610287565b820191905f5260205f20905b81548152906001019060200180831161026a57829003601f168201915b50505050509080600101805461029c90610d08565b80601f01602080910402602001604051908101604052809291908181526020018280546102c890610d08565b80156103135780601f106102ea57610100808354040283529160200191610313565b820191905f5260205f20905b8154815290600101906020018083116102f657829003601f168201915b50505050509080600201805461032890610d08565b80601f016020809104026020016040519081016040528092919081815260200182805461035490610d08565b801561039f5780601f106103765761010080835404028352916020019161039f565b820191905f5260205f20905b81548152906001019060200180831161038257829003601f168201915b5050505050908060030180546103b490610d08565b80601f01602080910402602001604051908101604052809291908181526020018280546103e090610d08565b801561042b5780601f106104025761010080835404028352916020019161042b565b820191905f5260205f20905b81548152906001019060200180831161040e57829003601f168201915b5050505050908060040154905085565b6060806060805f80866040516020016104549190610cc5565b6040516020818303038152906040528051906020012090505f805f8381526020019081526020015f205f01805461048a90610d08565b9050036104cc576040517f08c379a00000000000000000000000000000000000000000000000000000000081526004016104c39061101c565b60405180910390fd5b5f805f8381526020019081526020015f206040518060a00160405290815f820180546104f790610d08565b80601f016020809104026020016040519081016040528092919081815260200182805461052390610d08565b801561056e5780601f106105455761010080835404028352916020019161056e565b820191905f5260205f20905b81548152906001019060200180831161055157829003601f168201915b5050505050815260200160018201805461058790610d08565b80601f01602080910402602001604051908101604052809291908181526020018280546105b390610d08565b80156105fe5780601f106105d5576101008083540402835291602001916105fe565b820191905f5260205f20905b8154815290600101906020018083116105e157829003601f168201915b5050505050815260200160028201805461061790610d08565b80601f016020809104026020016040519081016040528092919081815260200182805461064390610d08565b801561068e5780601f106106655761010080835404028352916020019161068e565b820191905f5260205f20905b81548152906001019060200180831161067157829003601f168201915b505050505081526020016003820180546106a790610d08565b80601f01602080910402602001604051908101604052809291908181526020018280546106d390610d08565b801561071e5780601f106106f55761010080835404028352916020019161071e565b820191905f5260205f20905b81548152906001019060200180831161070157829003601f168201915b505050505081526020016004820154815250509050805f0151816020015182604001518360600151846080015196509650965096509650505091939590929450565b5f826040516020016107729190610cc5565b6040516020818303038152906040528051906020012090505f805f8381526020019081526020015f205f0180546107a890610d08565b9050036107ea576040517f08c379a00000000000000000000000000000000000000000000000000000000081526004016107e19061101c565b60405180910390fd5b5f805f8381526020019081526020015f2090508281600301908161080e9190610ed5565b507ffc0977e13dd5769892c7c9b899720a1bbf3ffc71c79c7d1042a0a20e66e3ea498484426040516108429392919061103a565b60405180910390a150505050565b5f604051905090565b5f80fd5b5f80fd5b5f80fd5b5f80fd5b5f601f19601f8301169050919050565b7f4e487b71000000000000000000000000000000000000000000000000000000005f52604160045260245ffd5b6108af82610869565b810181811067ffffffffffffffff821117156108ce576108cd610879565b5b80604052505050565b5f6108e0610850565b90506108ec82826108a6565b919050565b5f67ffffffffffffffff82111561090b5761090a610879565b5b61091482610869565b9050602081019050919050565b828183375f83830152505050565b5f61094161093c846108f1565b6108d7565b90508281526020810184848401111561095d5761095c610865565b5b610968848285610921565b509392505050565b5f82601f83011261098457610983610861565b5b813561099484826020860161092f565b91505092915050565b5f805f80608085870312156109b5576109b4610859565b5b5f85013567ffffffffffffffff8111156109d2576109d161085d565b5b6109de87828801610970565b945050602085013567ffffffffffffffff8111156109ff576109fe61085d565b5b610a0b87828801610970565b935050604085013567ffffffffffffffff811115610a2c57610a2b61085d565b5b610a3887828801610970565b925050606085013567ffffffffffffffff811115610a5957610a5861085d565b5b610a6587828801610970565b91505092959194509250565b5f819050919050565b610a8381610a71565b8114610a8d575f80fd5b50565b5f81359050610a9e81610a7a565b92915050565b5f60208284031215610ab957610ab8610859565b5b5f610ac684828501610a90565b91505092915050565b5f81519050919050565b5f82825260208201905092915050565b5f5b83811015610b06578082015181840152602081019050610aeb565b5f8484015250505050565b5f610b1b82610acf565b610b258185610ad9565b9350610b35818560208601610ae9565b610b3e81610869565b840191505092915050565b5f819050919050565b610b5b81610b49565b82525050565b5f60a0820190508181035f830152610b798188610b11565b90508181036020830152610b8d8187610b11565b90508181036040830152610ba18186610b11565b90508181036060830152610bb58185610b11565b9050610bc46080830184610b52565b9695505050505050565b5f60208284031215610be357610be2610859565b5b5f82013567ffffffffffffffff811115610c0057610bff61085d565b5b610c0c84828501610970565b91505092915050565b5f8060408385031215610c2b57610c2a610859565b5b5f83013567ffffffffffffffff811115610c4857610c4761085d565b5b610c5485828601610970565b925050602083013567ffffffffffffffff811115610c7557610c7461085d565b5b610c8185828601610970565b9150509250929050565b5f81905092915050565b5f610c9f82610acf565b610ca98185610c8b565b9350610cb9818560208601610ae9565b80840191505092915050565b5f610cd08284610c95565b915081905092915050565b7f4e487b71000000000000000000000000000000000000000000000000000000005f52602260045260245ffd5b5f6002820490506001821680610d1f57607f821691505b602082108103610d3257610d31610cdb565b5b50919050565b5f819050815f5260205f209050919050565b5f6020601f8301049050919050565b5f82821b905092915050565b5f60088302610d947fffffffffffffffffffffffffffffffffffffffffffffffffffffffffffffffff82610d59565b610d9e8683610d59565b95508019841693508086168417925050509392505050565b5f819050919050565b5f610dd9610dd4610dcf84610b49565b610db6565b610b49565b9050919050565b5f819050919050565b610df283610dbf565b610e06610dfe82610de0565b848454610d65565b825550505050565b5f90565b610e1a610e0e565b610e25818484610de9565b505050565b5b81811015610e4857610e3d5f82610e12565b600181019050610e2b565b5050565b601f821115610e8d57610e5e81610d38565b610e6784610d4a565b81016020851015610e76578190505b610e8a610e8285610d4a565b830182610e2a565b50505b505050565b5f82821c905092915050565b5f610ead5f1984600802610e92565b1980831691505092915050565b5f610ec58383610e9e565b9150826002028217905092915050565b610ede82610acf565b67ffffffffffffffff811115610ef757610ef6610879565b5b610f018254610d08565b610f0c828285610e4c565b5f60209050601f831160018114610f3d575f8415610f2b578287015190505b610f358582610eba565b865550610f9c565b601f198416610f4b86610d38565b5f5b82811015610f7257848901518255600182019150602085019450602081019050610f4d565b86831015610f8f5784890151610f8b601f891682610e9e565b8355505b6001600288020188555050505b505050505050565b5f6040820190508181035f830152610fbc8185610b11565b9050610fcb6020830184610b52565b9392505050565b7f43617365206e6f7420666f756e640000000000000000000000000000000000005f82015250565b5f611006600e83610ad9565b915061101182610fd2565b602082019050919050565b5f6020820190508181035f83015261103381610ffa565b9050919050565b5f6060820190508181035f8301526110528186610b11565b905081810360208301526110668185610b11565b90506110756040830184610b52565b94935050505056fea2646970667358221220ade1ff2b5fa64cef7abbb5702fc5f03f0646bf2d2213e8dfaab4ca2a0f6f956b64736f6c63430008150033",
  "immutableReferences": {},
  "source": "pragma solidity ^0.8.0;\r\n\r\ncontract PoliceCaseManagement {\r\n    struct CaseData {\r\n        string firNumber;\r\n        string evidenceHash;\r\n        string forensicsHash;\r\n        string caseStatus;\r\n        uint timestamp;\r\n    }\r\n\r\n    // Using bytes32 for mapping keys, but string firNumber is still used in events\r\n    mapping(bytes32 => CaseData) public cases;\r\n\r\n    event CaseCreated(string firNumber, uint timestamp);\r\n    event CaseUpdated(string firNumber, string caseStatus, uint timestamp);\r\n\r\n    function createCase(\r\n        string memory firNumber,\r\n        string memory evidenceHash,\r\n        string memory forensicsHash,\r\n        string memory caseStatus\r\n    ) public {\r\n        bytes32 firKey = keccak256(abi.encodePacked(firNumber)); // Convert firNumber to bytes32 for mapping key\r\n        cases[firKey] = CaseData(\r\n            firNumber,\r\n            evidenceHash,\r\n            forensicsHash,\r\n            caseStatus,\r\n            block.timestamp\r\n        );\r\n        emit CaseCreated(firNumber, block.timestamp); // Emit original firNumber (string)\r\n    }\r\n\r\n    function updateCaseStatus(string memory firNumber, string memory caseStatus) public {\r\n        bytes32 firKey = keccak256(abi.encodePacked(firNumber)); // Convert firNumber to bytes32 for mapping key\r\n        require(bytes(cases[firKey].firNumber).length != 0, \"Case not found\");  // Ensure case exists before updating\r\n        CaseData storage c = cases[firKey];\r\n        c.caseStatus = caseStatus;\r\n        emit CaseUpdated(firNumber, caseStatus, block.timestamp); // Emit original firNumber (string)\r\n    }\r\n\r\n    function getCase(string memory firNumber) public view returns (\r\n        string memory fir, string memory evidence, string memory forensics, string memory status, uint timestamp\r\n    ) {\r\n        bytes32 firKey = keccak256(abi.encodePacked(firNumber)); // Convert firNumber to bytes32 for mapping key\r\n        require(bytes(cases[firKey].firNumber).length != 0, \"Case not found\");\r\n\r\n        CaseData memory c = cases[firKey];\r\n        return (c.firNumber, c.evidenceHash, c.forensicsHash, c.caseStatus, c.timestamp);\r\n    }\r\n}\r\n",
  "sourcePath": "E:\\personalProjects\\blockHack\\contracts\\PoliceCaseManagement.sol",
  "compiler": {
    "name": "solc",
    "version": "0.8.21+commit.d9974bed.Emscripten.clang"
  },
  "schemaVersion": "3.4.16",
  "updatedAt": "2024-09-21T04:17:52.204Z",
  "networkType": "ethereum",
  "devdoc": {
    "kind": "dev",
    "methods": {},
    "version": 1
  },
  "userdoc": {
    "kind": "user",
    "methods": {},
    "version": 1
  }
}