{
  "contractName": "PoliceCaseManagement",
  "abi": [
    {
      "anonymous": false,
      "inputs": [
        {
          "indexed": false,
          "internalType": "string",
          "name": "firNumber",
          "type": "string"
        },
        {
          "indexed": false,
          "internalType": "uint256",
          "name": "timestamp",
          "type": "uint256"
        }
      ],
      "name": "CaseCreated",
      "type": "event"
    },
    {
      "anonymous": false,
      "inputs": [
        {
          "indexed": false,
          "internalType": "string",
          "name": "firNumber",
          "type": "string"
        },
        {
          "indexed": false,
          "internalType": "string",
          "name": "caseStatus",
          "type": "string"
        },
        {
          "indexed": false,
          "internalType": "uint256",
          "name": "timestamp",
          "type": "uint256"
        }
      ],
      "name": "CaseUpdated",
      "type": "event"
    },
    {
      "inputs": [
        {
          "internalType": "string",
          "name": "",
          "type": "string"
        }
      ],
      "name": "cases",
      "outputs": [
        {
          "internalType": "string",
          "name": "firNumber",
          "type": "string"
        },
        {
          "internalType": "string",
          "name": "evidenceHash",
          "type": "string"
        },
        {
          "internalType": "string",
          "name": "forensicsHash",
          "type": "string"
        },
        {
          "internalType": "string",
          "name": "caseStatus",
          "type": "string"
        },
        {
          "internalType": "uint256",
          "name": "timestamp",
          "type": "uint256"
        }
      ],
      "stateMutability": "view",
      "type": "function",
      "constant": true
    },
    {
      "inputs": [
        {
          "internalType": "string",
          "name": "firNumber",
          "type": "string"
        },
        {
          "internalType": "string",
          "name": "evidenceHash",
          "type": "string"
        },
        {
          "internalType": "string",
          "name": "forensicsHash",
          "type": "string"
        },
        {
          "internalType": "string",
          "name": "caseStatus",
          "type": "string"
        }
      ],
      "name": "createCase",
      "outputs": [],
      "stateMutability": "nonpayable",
      "type": "function"
    },
    {
      "inputs": [
        {
          "internalType": "string",
          "name": "firNumber",
          "type": "string"
        },
        {
          "internalType": "string",
          "name": "caseStatus",
          "type": "string"
        }
      ],
      "name": "updateCaseStatus",
      "outputs": [],
      "stateMutability": "nonpayable",
      "type": "function"
    },
    {
      "inputs": [
        {
          "internalType": "string",
          "name": "firNumber",
          "type": "string"
        }
      ],
      "name": "getCase",
      "outputs": [
        {
          "internalType": "string",
          "name": "fir",
          "type": "string"
        },
        {
          "internalType": "string",
          "name": "evidence",
          "type": "string"
        },
        {
          "internalType": "string",
          "name": "forensics",
          "type": "string"
        },
        {
          "internalType": "string",
          "name": "status",
          "type": "string"
        },
        {
          "internalType": "uint256",
          "name": "timestamp",
          "type": "uint256"
        }
      ],
      "stateMutability": "view",
      "type": "function",
      "constant": true
    }
  ],
  "bytecode": "0x608060405234801561000f575f80fd5b50610eeb8061001d5f395ff3fe608060405234801561000f575f80fd5b506004361061004a575f3560e01c80631d5811ba1461004e578063d4e068261461006a578063dae5611b1461009e578063df965829146100ba575b5f80fd5b6100686004803603810190610063919061089b565b6100ee565b005b610084600480360381019061007f919061096f565b6101d4565b604051610095959493929190610a48565b60405180910390f35b6100b860048036038101906100b39190610ab5565b61047b565b005b6100d460048036038101906100cf919061096f565b6104ed565b6040516100e5959493929190610a48565b60405180910390f35b6040518060a00160405280858152602001848152602001838152602001828152602001428152505f856040516101249190610b65565b90815260200160405180910390205f820151815f0190816101459190610d75565b50602082015181600101908161015b9190610d75565b5060408201518160020190816101719190610d75565b5060608201518160030190816101879190610d75565b50608082015181600401559050507f61db2bee1b6a5c4c35bc25d487944f36be7bd1e5eb0c771d4a4a9c8cc43175e984426040516101c6929190610e44565b60405180910390a150505050565b6060806060805f805f876040516101eb9190610b65565b90815260200160405180910390206040518060a00160405290815f8201805461021390610ba8565b80601f016020809104026020016040519081016040528092919081815260200182805461023f90610ba8565b801561028a5780601f106102615761010080835404028352916020019161028a565b820191905f5260205f20905b81548152906001019060200180831161026d57829003601f168201915b505050505081526020016001820180546102a390610ba8565b80601f01602080910402602001604051908101604052809291908181526020018280546102cf90610ba8565b801561031a5780601f106102f15761010080835404028352916020019161031a565b820191905f5260205f20905b8154815290600101906020018083116102fd57829003601f168201915b5050505050815260200160028201805461033390610ba8565b80601f016020809104026020016040519081016040528092919081815260200182805461035f90610ba8565b80156103aa5780601f10610381576101008083540402835291602001916103aa565b820191905f5260205f20905b81548152906001019060200180831161038d57829003601f168201915b505050505081526020016003820180546103c390610ba8565b80601f01602080910402602001604051908101604052809291908181526020018280546103ef90610ba8565b801561043a5780601f106104115761010080835404028352916020019161043a565b820191905f5260205f20905b81548152906001019060200180831161041d57829003601f168201915b505050505081526020016004820154815250509050805f01518160200151826040015183606001518460800151955095509550955095505091939590929450565b5f808360405161048b9190610b65565b90815260200160405180910390209050818160030190816104ac9190610d75565b507ffc0977e13dd5769892c7c9b899720a1bbf3ffc71c79c7d1042a0a20e66e3ea498383426040516104e093929190610e72565b60405180910390a1505050565b5f818051602081018201805184825260208301602085012081835280955050505050505f91509050805f01805461052390610ba8565b80601f016020809104026020016040519081016040528092919081815260200182805461054f90610ba8565b801561059a5780601f106105715761010080835404028352916020019161059a565b820191905f5260205f20905b81548152906001019060200180831161057d57829003601f168201915b5050505050908060010180546105af90610ba8565b80601f01602080910402602001604051908101604052809291908181526020018280546105db90610ba8565b80156106265780601f106105fd57610100808354040283529160200191610626565b820191905f5260205f20905b81548152906001019060200180831161060957829003601f168201915b50505050509080600201805461063b90610ba8565b80601f016020809104026020016040519081016040528092919081815260200182805461066790610ba8565b80156106b25780601f10610689576101008083540402835291602001916106b2565b820191905f5260205f20905b81548152906001019060200180831161069557829003601f168201915b5050505050908060030180546106c790610ba8565b80601f01602080910402602001604051908101604052809291908181526020018280546106f390610ba8565b801561073e5780601f106107155761010080835404028352916020019161073e565b820191905f5260205f20905b81548152906001019060200180831161072157829003601f168201915b5050505050908060040154905085565b5f604051905090565b5f80fd5b5f80fd5b5f80fd5b5f80fd5b5f601f19601f8301169050919050565b7f4e487b71000000000000000000000000000000000000000000000000000000005f52604160045260245ffd5b6107ad82610767565b810181811067ffffffffffffffff821117156107cc576107cb610777565b5b80604052505050565b5f6107de61074e565b90506107ea82826107a4565b919050565b5f67ffffffffffffffff82111561080957610808610777565b5b61081282610767565b9050602081019050919050565b828183375f83830152505050565b5f61083f61083a846107ef565b6107d5565b90508281526020810184848401111561085b5761085a610763565b5b61086684828561081f565b509392505050565b5f82601f8301126108825761088161075f565b5b813561089284826020860161082d565b91505092915050565b5f805f80608085870312156108b3576108b2610757565b5b5f85013567ffffffffffffffff8111156108d0576108cf61075b565b5b6108dc8782880161086e565b945050602085013567ffffffffffffffff8111156108fd576108fc61075b565b5b6109098782880161086e565b935050604085013567ffffffffffffffff81111561092a5761092961075b565b5b6109368782880161086e565b925050606085013567ffffffffffffffff8111156109575761095661075b565b5b6109638782880161086e565b91505092959194509250565b5f6020828403121561098457610983610757565b5b5f82013567ffffffffffffffff8111156109a1576109a061075b565b5b6109ad8482850161086e565b91505092915050565b5f81519050919050565b5f82825260208201905092915050565b5f5b838110156109ed5780820151818401526020810190506109d2565b5f8484015250505050565b5f610a02826109b6565b610a0c81856109c0565b9350610a1c8185602086016109d0565b610a2581610767565b840191505092915050565b5f819050919050565b610a4281610a30565b82525050565b5f60a0820190508181035f830152610a6081886109f8565b90508181036020830152610a7481876109f8565b90508181036040830152610a8881866109f8565b90508181036060830152610a9c81856109f8565b9050610aab6080830184610a39565b9695505050505050565b5f8060408385031215610acb57610aca610757565b5b5f83013567ffffffffffffffff811115610ae857610ae761075b565b5b610af48582860161086e565b925050602083013567ffffffffffffffff811115610b1557610b1461075b565b5b610b218582860161086e565b9150509250929050565b5f81905092915050565b5f610b3f826109b6565b610b498185610b2b565b9350610b598185602086016109d0565b80840191505092915050565b5f610b708284610b35565b915081905092915050565b7f4e487b71000000000000000000000000000000000000000000000000000000005f52602260045260245ffd5b5f6002820490506001821680610bbf57607f821691505b602082108103610bd257610bd1610b7b565b5b50919050565b5f819050815f5260205f209050919050565b5f6020601f8301049050919050565b5f82821b905092915050565b5f60088302610c347fffffffffffffffffffffffffffffffffffffffffffffffffffffffffffffffff82610bf9565b610c3e8683610bf9565b95508019841693508086168417925050509392505050565b5f819050919050565b5f610c79610c74610c6f84610a30565b610c56565b610a30565b9050919050565b5f819050919050565b610c9283610c5f565b610ca6610c9e82610c80565b848454610c05565b825550505050565b5f90565b610cba610cae565b610cc5818484610c89565b505050565b5b81811015610ce857610cdd5f82610cb2565b600181019050610ccb565b5050565b601f821115610d2d57610cfe81610bd8565b610d0784610bea565b81016020851015610d16578190505b610d2a610d2285610bea565b830182610cca565b50505b505050565b5f82821c905092915050565b5f610d4d5f1984600802610d32565b1980831691505092915050565b5f610d658383610d3e565b9150826002028217905092915050565b610d7e826109b6565b67ffffffffffffffff811115610d9757610d96610777565b5b610da18254610ba8565b610dac828285610cec565b5f60209050601f831160018114610ddd575f8415610dcb578287015190505b610dd58582610d5a565b865550610e3c565b601f198416610deb86610bd8565b5f5b82811015610e1257848901518255600182019150602085019450602081019050610ded565b86831015610e2f5784890151610e2b601f891682610d3e565b8355505b6001600288020188555050505b505050505050565b5f6040820190508181035f830152610e5c81856109f8565b9050610e6b6020830184610a39565b9392505050565b5f6060820190508181035f830152610e8a81866109f8565b90508181036020830152610e9e81856109f8565b9050610ead6040830184610a39565b94935050505056fea2646970667358221220a41d6d2699cac3daf760ec6ad5415488f8fdc0d47c7a36b33d8b742d4f2e238464736f6c63430008150033",
  "immutableReferences": {},
  "source": "pragma solidity ^0.8.0;\r\n\r\ncontract PoliceCaseManagement {\r\n    struct CaseData {\r\n        string firNumber;\r\n        string evidenceHash;\r\n        string forensicsHash;\r\n        string caseStatus;\r\n        uint timestamp;\r\n    }\r\n\r\n    mapping(string => CaseData) public cases;\r\n\r\n    event CaseCreated(string firNumber, uint timestamp);\r\n    event CaseUpdated(string firNumber, string caseStatus, uint timestamp);\r\n\r\n    function createCase(\r\n        string memory firNumber,\r\n        string memory evidenceHash,\r\n        string memory forensicsHash,\r\n        string memory caseStatus\r\n    ) public {\r\n        cases[firNumber] = CaseData(\r\n            firNumber,\r\n            evidenceHash,\r\n            forensicsHash,\r\n            caseStatus,\r\n            block.timestamp\r\n        );\r\n        emit CaseCreated(firNumber, block.timestamp);\r\n    }\r\n\r\n    function updateCaseStatus(string memory firNumber, string memory caseStatus) public {\r\n        CaseData storage c = cases[firNumber];\r\n        c.caseStatus = caseStatus;\r\n        emit CaseUpdated(firNumber, caseStatus, block.timestamp);\r\n    }\r\n\r\n    function getCase(string memory firNumber) public view returns (\r\n        string memory fir, string memory evidence, string memory forensics, string memory status, uint timestamp\r\n    ) {\r\n        CaseData memory c = cases[firNumber];\r\n        return (c.firNumber, c.evidenceHash, c.forensicsHash, c.caseStatus, c.timestamp);\r\n    }\r\n}\r\n",
  "sourcePath": "E:\\personalProjects\\blockHack\\contracts\\PoliceCaseManagement.sol",
  "compiler": {
    "name": "solc",
    "version": "0.8.21+commit.d9974bed.Emscripten.clang"
  },
  "schemaVersion": "3.4.16",
  "updatedAt": "2024-09-20T16:51:25.601Z",
  "networkType": "ethereum",
  "devdoc": {
    "kind": "dev",
    "methods": {},
    "version": 1
  },
  "userdoc": {
    "kind": "user",
    "methods": {},
    "version": 1
  }
}