{
  "contractName": "PoliceCaseManagement",
  "abi": [
    {
      "anonymous": false,
      "inputs": [
        {
          "indexed": false,
          "internalType": "bytes32",
          "name": "firNumber",
          "type": "bytes32"
        },
        {
          "indexed": false,
          "internalType": "uint256",
          "name": "timestamp",
          "type": "uint256"
        }
      ],
      "name": "CaseCreated",
      "type": "event"
    },
    {
      "anonymous": false,
      "inputs": [
        {
          "indexed": false,
          "internalType": "bytes32",
          "name": "firNumber",
          "type": "bytes32"
        },
        {
          "indexed": false,
          "internalType": "string",
          "name": "caseStatus",
          "type": "string"
        },
        {
          "indexed": false,
          "internalType": "uint256",
          "name": "timestamp",
          "type": "uint256"
        }
      ],
      "name": "CaseUpdated",
      "type": "event"
    },
    {
      "inputs": [
        {
          "internalType": "bytes32",
          "name": "",
          "type": "bytes32"
        }
      ],
      "name": "cases",
      "outputs": [
        {
          "internalType": "bytes32",
          "name": "firNumber",
          "type": "bytes32"
        },
        {
          "internalType": "bytes32",
          "name": "evidenceHash",
          "type": "bytes32"
        },
        {
          "internalType": "bytes32",
          "name": "forensicsHash",
          "type": "bytes32"
        },
        {
          "internalType": "string",
          "name": "caseStatus",
          "type": "string"
        },
        {
          "internalType": "uint256",
          "name": "timestamp",
          "type": "uint256"
        },
        {
          "internalType": "bool",
          "name": "isActive",
          "type": "bool"
        }
      ],
      "stateMutability": "view",
      "type": "function",
      "constant": true
    },
    {
      "inputs": [
        {
          "internalType": "bytes32",
          "name": "_firNumber",
          "type": "bytes32"
        },
        {
          "internalType": "bytes32",
          "name": "evidenceHash",
          "type": "bytes32"
        },
        {
          "internalType": "bytes32",
          "name": "forensicsHash",
          "type": "bytes32"
        },
        {
          "internalType": "string",
          "name": "caseStatus",
          "type": "string"
        }
      ],
      "name": "createCase",
      "outputs": [],
      "stateMutability": "nonpayable",
      "type": "function"
    },
    {
      "inputs": [
        {
          "internalType": "bytes32",
          "name": "_firNumber",
          "type": "bytes32"
        },
        {
          "internalType": "string",
          "name": "caseStatus",
          "type": "string"
        }
      ],
      "name": "updateCaseStatus",
      "outputs": [],
      "stateMutability": "nonpayable",
      "type": "function"
    },
    {
      "inputs": [
        {
          "internalType": "bytes32",
          "name": "_firNumber",
          "type": "bytes32"
        }
      ],
      "name": "closeCase",
      "outputs": [],
      "stateMutability": "nonpayable",
      "type": "function"
    },
    {
      "inputs": [
        {
          "internalType": "bytes32",
          "name": "_firNumber",
          "type": "bytes32"
        }
      ],
      "name": "getCase",
      "outputs": [
        {
          "internalType": "bytes32",
          "name": "fir",
          "type": "bytes32"
        },
        {
          "internalType": "bytes32",
          "name": "evidence",
          "type": "bytes32"
        },
        {
          "internalType": "bytes32",
          "name": "forensics",
          "type": "bytes32"
        },
        {
          "internalType": "string",
          "name": "status",
          "type": "string"
        },
        {
          "internalType": "uint256",
          "name": "timestamp",
          "type": "uint256"
        }
      ],
      "stateMutability": "view",
      "type": "function",
      "constant": true
    }
  ],
  "bytecode": "0x608060405234801561000f575f80fd5b5061108e8061001d5f395ff3fe608060405234801561000f575f80fd5b5060043610610055575f3560e01c8063487e19d51461005957806348ea1c231461008d5780634e04d799146100c2578063801c36e7146100de5780639ea5460e146100fa575b5f80fd5b610073600480360381019061006e919061074e565b610116565b60405161008495949392919061082a565b60405180910390f35b6100a760048036038101906100a2919061074e565b61028d565b6040516100b99695949392919061089c565b60405180910390f35b6100dc60048036038101906100d7919061074e565b610356565b005b6100f860048036038101906100f39190610a2e565b6104bd565b005b610114600480360381019061010f9190610a88565b6105d7565b005b5f805f60605f805f1b5f808881526020019081526020015f205f015403610172576040517f08c379a000000000000000000000000000000000000000000000000000000000815260040161016990610b52565b60405180910390fd5b5f805f8881526020019081526020015f206040518060c00160405290815f820154815260200160018201548152602001600282015481526020016003820180546101bb90610b9d565b80601f01602080910402602001604051908101604052809291908181526020018280546101e790610b9d565b80156102325780601f1061020957610100808354040283529160200191610232565b820191905f5260205f20905b81548152906001019060200180831161021557829003601f168201915b5050505050815260200160048201548152602001600582015f9054906101000a900460ff1615151515815250509050805f01518160200151826040015183606001518460800151955095509550955095505091939590929450565b5f602052805f5260405f205f91509050805f0154908060010154908060020154908060030180546102bd90610b9d565b80601f01602080910402602001604051908101604052809291908181526020018280546102e990610b9d565b80156103345780601f1061030b57610100808354040283529160200191610334565b820191905f5260205f20905b81548152906001019060200180831161031757829003601f168201915b505050505090806004015490806005015f9054906101000a900460ff16905086565b5f801b5f808381526020019081526020015f205f0154036103ac576040517f08c379a00000000000000000000000000000000000000000000000000000000081526004016103a390610b52565b60405180910390fd5b5f808281526020019081526020015f206005015f9054906101000a900460ff1661040b576040517f08c379a000000000000000000000000000000000000000000000000000000000815260040161040290610c17565b60405180910390fd5b5f805f8381526020019081526020015f2090505f816005015f6101000a81548160ff0219169083151502179055506040518060400160405280600681526020017f436c6f736564000000000000000000000000000000000000000000000000000081525081600301908161047f9190610dd2565b507f09cdf9415490c34916c00b4fc23bdb79956f03da377ecb1d9450260e1a26103882426040516104b1929190610eeb565b60405180910390a15050565b5f801b5f808481526020019081526020015f205f015403610513576040517f08c379a000000000000000000000000000000000000000000000000000000000815260040161050a90610b52565b60405180910390fd5b5f808381526020019081526020015f206005015f9054906101000a900460ff16610572576040517f08c379a000000000000000000000000000000000000000000000000000000000815260040161056990610f6f565b60405180910390fd5b5f805f8481526020019081526020015f209050818160030190816105969190610dd2565b507f09cdf9415490c34916c00b4fc23bdb79956f03da377ecb1d9450260e1a2610388383426040516105ca93929190610f8d565b60405180910390a1505050565b5f801b5f808681526020019081526020015f205f01541461062d576040517f08c379a000000000000000000000000000000000000000000000000000000000815260040161062490611013565b60405180910390fd5b6040518060c00160405280858152602001848152602001838152602001828152602001428152602001600115158152505f808681526020019081526020015f205f820151815f01556020820151816001015560408201518160020155606082015181600301908161069e9190610dd2565b506080820151816004015560a0820151816005015f6101000a81548160ff0219169083151502179055509050507fe69d21df5e04379de36f8f117c360802f6cba68cf1265906386a8fc5de88110e84426040516106fc929190611031565b60405180910390a150505050565b5f604051905090565b5f80fd5b5f80fd5b5f819050919050565b61072d8161071b565b8114610737575f80fd5b50565b5f8135905061074881610724565b92915050565b5f6020828403121561076357610762610713565b5b5f6107708482850161073a565b91505092915050565b6107828161071b565b82525050565b5f81519050919050565b5f82825260208201905092915050565b5f5b838110156107bf5780820151818401526020810190506107a4565b5f8484015250505050565b5f601f19601f8301169050919050565b5f6107e482610788565b6107ee8185610792565b93506107fe8185602086016107a2565b610807816107ca565b840191505092915050565b5f819050919050565b61082481610812565b82525050565b5f60a08201905061083d5f830188610779565b61084a6020830187610779565b6108576040830186610779565b818103606083015261086981856107da565b9050610878608083018461081b565b9695505050505050565b5f8115159050919050565b61089681610882565b82525050565b5f60c0820190506108af5f830189610779565b6108bc6020830188610779565b6108c96040830187610779565b81810360608301526108db81866107da565b90506108ea608083018561081b565b6108f760a083018461088d565b979650505050505050565b5f80fd5b5f80fd5b7f4e487b71000000000000000000000000000000000000000000000000000000005f52604160045260245ffd5b610940826107ca565b810181811067ffffffffffffffff8211171561095f5761095e61090a565b5b80604052505050565b5f61097161070a565b905061097d8282610937565b919050565b5f67ffffffffffffffff82111561099c5761099b61090a565b5b6109a5826107ca565b9050602081019050919050565b828183375f83830152505050565b5f6109d26109cd84610982565b610968565b9050828152602081018484840111156109ee576109ed610906565b5b6109f98482856109b2565b509392505050565b5f82601f830112610a1557610a14610902565b5b8135610a258482602086016109c0565b91505092915050565b5f8060408385031215610a4457610a43610713565b5b5f610a518582860161073a565b925050602083013567ffffffffffffffff811115610a7257610a71610717565b5b610a7e85828601610a01565b9150509250929050565b5f805f8060808587031215610aa057610a9f610713565b5b5f610aad8782880161073a565b9450506020610abe8782880161073a565b9350506040610acf8782880161073a565b925050606085013567ffffffffffffffff811115610af057610aef610717565b5b610afc87828801610a01565b91505092959194509250565b7f43617365206e6f7420666f756e640000000000000000000000000000000000005f82015250565b5f610b3c600e83610792565b9150610b4782610b08565b602082019050919050565b5f6020820190508181035f830152610b6981610b30565b9050919050565b7f4e487b71000000000000000000000000000000000000000000000000000000005f52602260045260245ffd5b5f6002820490506001821680610bb457607f821691505b602082108103610bc757610bc6610b70565b5b50919050565b7f4361736520697320616c726561647920636c6f736564000000000000000000005f82015250565b5f610c01601683610792565b9150610c0c82610bcd565b602082019050919050565b5f6020820190508181035f830152610c2e81610bf5565b9050919050565b5f819050815f5260205f209050919050565b5f6020601f8301049050919050565b5f82821b905092915050565b5f60088302610c917fffffffffffffffffffffffffffffffffffffffffffffffffffffffffffffffff82610c56565b610c9b8683610c56565b95508019841693508086168417925050509392505050565b5f819050919050565b5f610cd6610cd1610ccc84610812565b610cb3565b610812565b9050919050565b5f819050919050565b610cef83610cbc565b610d03610cfb82610cdd565b848454610c62565b825550505050565b5f90565b610d17610d0b565b610d22818484610ce6565b505050565b5b81811015610d4557610d3a5f82610d0f565b600181019050610d28565b5050565b601f821115610d8a57610d5b81610c35565b610d6484610c47565b81016020851015610d73578190505b610d87610d7f85610c47565b830182610d27565b50505b505050565b5f82821c905092915050565b5f610daa5f1984600802610d8f565b1980831691505092915050565b5f610dc28383610d9b565b9150826002028217905092915050565b610ddb82610788565b67ffffffffffffffff811115610df457610df361090a565b5b610dfe8254610b9d565b610e09828285610d49565b5f60209050601f831160018114610e3a575f8415610e28578287015190505b610e328582610db7565b865550610e99565b601f198416610e4886610c35565b5f5b82811015610e6f57848901518255600182019150602085019450602081019050610e4a565b86831015610e8c5784890151610e88601f891682610d9b565b8355505b6001600288020188555050505b505050505050565b7f436c6f73656400000000000000000000000000000000000000000000000000005f82015250565b5f610ed5600683610792565b9150610ee082610ea1565b602082019050919050565b5f606082019050610efe5f830185610779565b8181036020830152610f0f81610ec9565b9050610f1e604083018461081b565b9392505050565b7f4361736520697320636c6f7365640000000000000000000000000000000000005f82015250565b5f610f59600e83610792565b9150610f6482610f25565b602082019050919050565b5f6020820190508181035f830152610f8681610f4d565b9050919050565b5f606082019050610fa05f830186610779565b8181036020830152610fb281856107da565b9050610fc1604083018461081b565b949350505050565b7f4361736520616c726561647920657869737473000000000000000000000000005f82015250565b5f610ffd601383610792565b915061100882610fc9565b602082019050919050565b5f6020820190508181035f83015261102a81610ff1565b9050919050565b5f6040820190506110445f830185610779565b611051602083018461081b565b939250505056fea2646970667358221220ee43e34f8fe246884f5d6a95649358757ece735abca192d0025fcdfdaf2077c564736f6c63430008150033",
  "immutableReferences": {},
  "source": "\r\npragma solidity ^0.8.0;\r\n\r\ncontract PoliceCaseManagement {\r\n    struct CaseData {\r\n        bytes32 firNumber;\r\n        bytes32 evidenceHash;\r\n        bytes32 forensicsHash;\r\n        string caseStatus;\r\n        uint256 timestamp;\r\n        bool isActive;\r\n    }\r\n\r\n    mapping(bytes32 => CaseData) public cases;\r\n\r\n    event CaseCreated(bytes32 firNumber, uint256 timestamp);\r\n    event CaseUpdated(bytes32 firNumber, string caseStatus, uint256 timestamp);\r\n\r\n    function createCase(\r\n        bytes32 _firNumber,\r\n        bytes32 evidenceHash,\r\n        bytes32 forensicsHash,\r\n        string memory caseStatus\r\n    ) public {\r\n        require(cases[_firNumber].firNumber == bytes32(0), \"Case already exists\");\r\n        cases[_firNumber] = CaseData(\r\n            _firNumber,\r\n            evidenceHash,\r\n            forensicsHash,\r\n            caseStatus,\r\n            block.timestamp,\r\n            true\r\n        );\r\n        emit CaseCreated(_firNumber, block.timestamp);\r\n    }\r\n\r\n    function updateCaseStatus(bytes32 _firNumber, string memory caseStatus) public {\r\n        require(cases[_firNumber].firNumber != bytes32(0), \"Case not found\");\r\n        require(cases[_firNumber].isActive, \"Case is closed\");\r\n        CaseData storage c = cases[_firNumber];\r\n        c.caseStatus = caseStatus;\r\n        emit CaseUpdated(_firNumber, caseStatus, block.timestamp);\r\n    }\r\n\r\n    function closeCase(bytes32 _firNumber) public {\r\n        require(cases[_firNumber].firNumber != bytes32(0), \"Case not found\");\r\n        require(cases[_firNumber].isActive, \"Case is already closed\");\r\n        CaseData storage c = cases[_firNumber];\r\n        c.isActive = false;\r\n        c.caseStatus = \"Closed\";\r\n        emit CaseUpdated(_firNumber, \"Closed\", block.timestamp);\r\n    }\r\n\r\n    function getCase(bytes32 _firNumber)\r\n        public\r\n        view\r\n        returns (\r\n            bytes32 fir,\r\n            bytes32 evidence,\r\n            bytes32 forensics,\r\n            string memory status,\r\n            uint256 timestamp\r\n        )\r\n    {\r\n        require(cases[_firNumber].firNumber != bytes32(0), \"Case not found\");\r\n        CaseData memory c = cases[_firNumber];\r\n        return (\r\n            c.firNumber,\r\n            c.evidenceHash,\r\n            c.forensicsHash,\r\n            c.caseStatus,\r\n            c.timestamp\r\n        );\r\n    }\r\n}\r\n\r\n\r\n",
  "sourcePath": "E:\\personalProjects\\blockHack\\contracts\\PoliceCaseManagement.sol",
  "compiler": {
    "name": "solc",
    "version": "0.8.21+commit.d9974bed.Emscripten.clang"
  },
  "schemaVersion": "3.4.16",
  "updatedAt": "2024-09-21T14:01:48.806Z",
  "networkType": "ethereum",
  "devdoc": {
    "kind": "dev",
    "methods": {},
    "version": 1
  },
  "userdoc": {
    "kind": "user",
    "methods": {},
    "version": 1
  }
}