{
  "contractName": "PoliceCaseManagement",
  "abi": [
    {
      "anonymous": false,
      "inputs": [
        {
          "indexed": true,
          "internalType": "bytes32",
          "name": "firNumber",
          "type": "bytes32"
        },
        {
          "indexed": false,
          "internalType": "uint256",
          "name": "timestamp",
          "type": "uint256"
        }
      ],
      "name": "CaseCreated",
      "type": "event"
    },
    {
      "anonymous": false,
      "inputs": [
        {
          "indexed": true,
          "internalType": "bytes32",
          "name": "firNumber",
          "type": "bytes32"
        },
        {
          "indexed": false,
          "internalType": "string",
          "name": "caseStatus",
          "type": "string"
        },
        {
          "indexed": false,
          "internalType": "uint256",
          "name": "timestamp",
          "type": "uint256"
        }
      ],
      "name": "CaseUpdated",
      "type": "event"
    },
    {
      "inputs": [
        {
          "internalType": "bytes32",
          "name": "",
          "type": "bytes32"
        }
      ],
      "name": "cases",
      "outputs": [
        {
          "internalType": "bytes32",
          "name": "firNumber",
          "type": "bytes32"
        },
        {
          "internalType": "bytes32",
          "name": "caseDataHash",
          "type": "bytes32"
        },
        {
          "internalType": "string",
          "name": "caseStatus",
          "type": "string"
        },
        {
          "internalType": "uint256",
          "name": "timestamp",
          "type": "uint256"
        },
        {
          "internalType": "bool",
          "name": "isActive",
          "type": "bool"
        }
      ],
      "stateMutability": "view",
      "type": "function",
      "constant": true
    },
    {
      "inputs": [
        {
          "internalType": "bytes32",
          "name": "firNumber",
          "type": "bytes32"
        },
        {
          "internalType": "bytes32",
          "name": "caseDataHash",
          "type": "bytes32"
        },
        {
          "internalType": "string",
          "name": "caseStatus",
          "type": "string"
        }
      ],
      "name": "createCase",
      "outputs": [],
      "stateMutability": "nonpayable",
      "type": "function"
    },
    {
      "inputs": [
        {
          "internalType": "bytes32",
          "name": "firNumber",
          "type": "bytes32"
        },
        {
          "internalType": "string",
          "name": "caseStatus",
          "type": "string"
        }
      ],
      "name": "updateCaseStatus",
      "outputs": [],
      "stateMutability": "nonpayable",
      "type": "function"
    },
    {
      "inputs": [
        {
          "internalType": "bytes32",
          "name": "firNumber",
          "type": "bytes32"
        }
      ],
      "name": "closeCase",
      "outputs": [],
      "stateMutability": "nonpayable",
      "type": "function"
    },
    {
      "inputs": [
        {
          "internalType": "bytes32",
          "name": "firNumber",
          "type": "bytes32"
        },
        {
          "internalType": "bytes32",
          "name": "newCaseDataHash",
          "type": "bytes32"
        }
      ],
      "name": "verifyCaseHash",
      "outputs": [
        {
          "internalType": "bool",
          "name": "",
          "type": "bool"
        }
      ],
      "stateMutability": "view",
      "type": "function",
      "constant": true
    },
    {
      "inputs": [
        {
          "internalType": "bytes32",
          "name": "firNumber",
          "type": "bytes32"
        }
      ],
      "name": "getCase",
      "outputs": [
        {
          "internalType": "bytes32",
          "name": "fir",
          "type": "bytes32"
        },
        {
          "internalType": "bytes32",
          "name": "caseDataHash",
          "type": "bytes32"
        },
        {
          "internalType": "string",
          "name": "status",
          "type": "string"
        },
        {
          "internalType": "uint256",
          "name": "timestamp",
          "type": "uint256"
        }
      ],
      "stateMutability": "view",
      "type": "function",
      "constant": true
    }
  ],
  "bytecode": "0x608060405234801561000f575f80fd5b506112748061001d5f395ff3fe608060405234801561000f575f80fd5b5060043610610060575f3560e01c8063487e19d51461006457806348ea1c23146100975780634e04d799146100cb57806368f1bb7b146100e7578063801c36e7146101175780638ad5f48814610133575b5f80fd5b61007e60048036038101906100799190610852565b61014f565b60405161008e949392919061092e565b60405180910390f35b6100b160048036038101906100ac9190610852565b6102b2565b6040516100c2959493929190610992565b60405180910390f35b6100e560048036038101906100e09190610852565b610375565b005b61010160048036038101906100fc91906109ea565b6104db565b60405161010e9190610a28565b60405180910390f35b610131600480360381019061012c9190610aa2565b610550565b005b61014d60048036038101906101489190610aff565b61066e565b005b5f8060605f805f1b5f808781526020019081526020015f205f0154036101aa576040517f08c379a00000000000000000000000000000000000000000000000000000000081526004016101a190610bba565b60405180910390fd5b5f805f8781526020019081526020015f206040518060a00160405290815f8201548152602001600182015481526020016002820180546101e990610c05565b80601f016020809104026020016040519081016040528092919081815260200182805461021590610c05565b80156102605780601f1061023757610100808354040283529160200191610260565b820191905f5260205f20905b81548152906001019060200180831161024357829003601f168201915b5050505050815260200160038201548152602001600482015f9054906101000a900460ff1615151515815250509050805f01518160200151826040015183606001519450945094509450509193509193565b5f602052805f5260405f205f91509050805f0154908060010154908060020180546102dc90610c05565b80601f016020809104026020016040519081016040528092919081815260200182805461030890610c05565b80156103535780601f1061032a57610100808354040283529160200191610353565b820191905f5260205f20905b81548152906001019060200180831161033657829003601f168201915b505050505090806003015490806004015f9054906101000a900460ff16905085565b5f801b5f808381526020019081526020015f205f0154036103cb576040517f08c379a00000000000000000000000000000000000000000000000000000000081526004016103c290610bba565b60405180910390fd5b5f808281526020019081526020015f206004015f9054906101000a900460ff1661042a576040517f08c379a000000000000000000000000000000000000000000000000000000000815260040161042190610c7f565b60405180910390fd5b5f805f8381526020019081526020015f2090505f816004015f6101000a81548160ff0219169083151502179055506040518060400160405280600681526020017f436c6f736564000000000000000000000000000000000000000000000000000081525081600201908161049e9190610e67565b50817f09cdf9415490c34916c00b4fc23bdb79956f03da377ecb1d9450260e1a261038426040516104cf9190610f80565b60405180910390a25050565b5f805f1b5f808581526020019081526020015f205f015403610532576040517f08c379a000000000000000000000000000000000000000000000000000000000815260040161052990610bba565b60405180910390fd5b815f808581526020019081526020015f206001015414905092915050565b5f801b5f808581526020019081526020015f205f0154036105a6576040517f08c379a000000000000000000000000000000000000000000000000000000000815260040161059d90610bba565b60405180910390fd5b5f808481526020019081526020015f206004015f9054906101000a900460ff16610605576040517f08c379a00000000000000000000000000000000000000000000000000000000081526004016105fc90610ff6565b60405180910390fd5b5f805f8581526020019081526020015f209050828282600201918261062b92919061101e565b50837f09cdf9415490c34916c00b4fc23bdb79956f03da377ecb1d9450260e1a26103884844260405161066093929190611125565b60405180910390a250505050565b5f801b84036106b2576040517f08c379a00000000000000000000000000000000000000000000000000000000081526004016106a99061119f565b60405180910390fd5b5f801b5f808681526020019081526020015f205f015414610708576040517f08c379a00000000000000000000000000000000000000000000000000000000081526004016106ff90611207565b60405180910390fd5b6040518060a0016040528085815260200184815260200183838080601f0160208091040260200160405190810160405280939291908181526020018383808284375f81840152601f19601f820116905080830192505050505050508152602001428152602001600115158152505f808681526020019081526020015f205f820151815f01556020820151816001015560408201518160020190816107ac9190610e67565b50606082015181600301556080820151816004015f6101000a81548160ff021916908315150217905550905050837fe69d21df5e04379de36f8f117c360802f6cba68cf1265906386a8fc5de88110e426040516108099190611225565b60405180910390a250505050565b5f80fd5b5f80fd5b5f819050919050565b6108318161081f565b811461083b575f80fd5b50565b5f8135905061084c81610828565b92915050565b5f6020828403121561086757610866610817565b5b5f6108748482850161083e565b91505092915050565b6108868161081f565b82525050565b5f81519050919050565b5f82825260208201905092915050565b5f5b838110156108c35780820151818401526020810190506108a8565b5f8484015250505050565b5f601f19601f8301169050919050565b5f6108e88261088c565b6108f28185610896565b93506109028185602086016108a6565b61090b816108ce565b840191505092915050565b5f819050919050565b61092881610916565b82525050565b5f6080820190506109415f83018761087d565b61094e602083018661087d565b818103604083015261096081856108de565b905061096f606083018461091f565b95945050505050565b5f8115159050919050565b61098c81610978565b82525050565b5f60a0820190506109a55f83018861087d565b6109b2602083018761087d565b81810360408301526109c481866108de565b90506109d3606083018561091f565b6109e06080830184610983565b9695505050505050565b5f8060408385031215610a00576109ff610817565b5b5f610a0d8582860161083e565b9250506020610a1e8582860161083e565b9150509250929050565b5f602082019050610a3b5f830184610983565b92915050565b5f80fd5b5f80fd5b5f80fd5b5f8083601f840112610a6257610a61610a41565b5b8235905067ffffffffffffffff811115610a7f57610a7e610a45565b5b602083019150836001820283011115610a9b57610a9a610a49565b5b9250929050565b5f805f60408486031215610ab957610ab8610817565b5b5f610ac68682870161083e565b935050602084013567ffffffffffffffff811115610ae757610ae661081b565b5b610af386828701610a4d565b92509250509250925092565b5f805f8060608587031215610b1757610b16610817565b5b5f610b248782880161083e565b9450506020610b358782880161083e565b935050604085013567ffffffffffffffff811115610b5657610b5561081b565b5b610b6287828801610a4d565b925092505092959194509250565b7f43617365206e6f7420666f756e640000000000000000000000000000000000005f82015250565b5f610ba4600e83610896565b9150610baf82610b70565b602082019050919050565b5f6020820190508181035f830152610bd181610b98565b9050919050565b7f4e487b71000000000000000000000000000000000000000000000000000000005f52602260045260245ffd5b5f6002820490506001821680610c1c57607f821691505b602082108103610c2f57610c2e610bd8565b5b50919050565b7f4361736520697320616c726561647920636c6f736564000000000000000000005f82015250565b5f610c69601683610896565b9150610c7482610c35565b602082019050919050565b5f6020820190508181035f830152610c9681610c5d565b9050919050565b7f4e487b71000000000000000000000000000000000000000000000000000000005f52604160045260245ffd5b5f819050815f5260205f209050919050565b5f6020601f8301049050919050565b5f82821b905092915050565b5f60088302610d267fffffffffffffffffffffffffffffffffffffffffffffffffffffffffffffffff82610ceb565b610d308683610ceb565b95508019841693508086168417925050509392505050565b5f819050919050565b5f610d6b610d66610d6184610916565b610d48565b610916565b9050919050565b5f819050919050565b610d8483610d51565b610d98610d9082610d72565b848454610cf7565b825550505050565b5f90565b610dac610da0565b610db7818484610d7b565b505050565b5b81811015610dda57610dcf5f82610da4565b600181019050610dbd565b5050565b601f821115610e1f57610df081610cca565b610df984610cdc565b81016020851015610e08578190505b610e1c610e1485610cdc565b830182610dbc565b50505b505050565b5f82821c905092915050565b5f610e3f5f1984600802610e24565b1980831691505092915050565b5f610e578383610e30565b9150826002028217905092915050565b610e708261088c565b67ffffffffffffffff811115610e8957610e88610c9d565b5b610e938254610c05565b610e9e828285610dde565b5f60209050601f831160018114610ecf575f8415610ebd578287015190505b610ec78582610e4c565b865550610f2e565b601f198416610edd86610cca565b5f5b82811015610f0457848901518255600182019150602085019450602081019050610edf565b86831015610f215784890151610f1d601f891682610e30565b8355505b6001600288020188555050505b505050505050565b7f436c6f73656400000000000000000000000000000000000000000000000000005f82015250565b5f610f6a600683610896565b9150610f7582610f36565b602082019050919050565b5f6040820190508181035f830152610f9781610f5e565b9050610fa6602083018461091f565b92915050565b7f4361736520697320636c6f7365640000000000000000000000000000000000005f82015250565b5f610fe0600e83610896565b9150610feb82610fac565b602082019050919050565b5f6020820190508181035f83015261100d81610fd4565b9050919050565b5f82905092915050565b6110288383611014565b67ffffffffffffffff81111561104157611040610c9d565b5b61104b8254610c05565b611056828285610dde565b5f601f831160018114611083575f8415611071578287013590505b61107b8582610e4c565b8655506110e2565b601f19841661109186610cca565b5f5b828110156110b857848901358255600182019150602085019450602081019050611093565b868310156110d557848901356110d1601f891682610e30565b8355505b6001600288020188555050505b50505050505050565b828183375f83830152505050565b5f6111048385610896565b93506111118385846110eb565b61111a836108ce565b840190509392505050565b5f6040820190508181035f83015261113e8185876110f9565b905061114d602083018461091f565b949350505050565b7f496e76616c696420464952206e756d62657200000000000000000000000000005f82015250565b5f611189601283610896565b915061119482611155565b602082019050919050565b5f6020820190508181035f8301526111b68161117d565b9050919050565b7f4361736520616c726561647920657869737473000000000000000000000000005f82015250565b5f6111f1601383610896565b91506111fc826111bd565b602082019050919050565b5f6020820190508181035f83015261121e816111e5565b9050919050565b5f6020820190506112385f83018461091f565b9291505056fea264697066735822122016960d876687650f0c963a41a82708bfcb67574ea37dd23a1f6947e813f235bd64736f6c63430008150033",
  "immutableReferences": {},
  "source": "// SPDX-License-Identifier: GPL-3.0\r\npragma solidity ^0.8.0;\r\n\r\ncontract PoliceCaseManagement {\r\n    \r\n    struct CaseData {\r\n        bytes32 firNumber;        // FIR Number\r\n        bytes32 caseDataHash;     // Hash of the FIR case data (from SQL database)\r\n        string caseStatus;        // Case Status (Open, Closed, etc.)\r\n        uint256 timestamp;        // Timestamp when the hash was stored\r\n        bool isActive;            // Case active or closed\r\n    }\r\n    \r\n    mapping(bytes32 => CaseData) public cases;\r\n    \r\n    event CaseCreated(bytes32 indexed firNumber, uint256 timestamp);\r\n    event CaseUpdated(bytes32 indexed firNumber, string caseStatus, uint256 timestamp);\r\n\r\n    // Store the hash of the case data in the blockchain\r\n    function createCase(\r\n        bytes32 firNumber,\r\n        bytes32 caseDataHash,    // Hash of the case data\r\n        string calldata caseStatus\r\n    ) public {\r\n        require(firNumber != bytes32(0), \"Invalid FIR number\");\r\n        require(cases[firNumber].firNumber == bytes32(0), \"Case already exists\");\r\n\r\n        cases[firNumber] = CaseData(\r\n            firNumber,\r\n            caseDataHash,  // Store the hash of the case data\r\n            caseStatus,\r\n            block.timestamp,\r\n            true\r\n        );\r\n\r\n        emit CaseCreated(firNumber, block.timestamp);\r\n    }\r\n\r\n    // Update case status without modifying the hash\r\n    function updateCaseStatus(bytes32 firNumber, string calldata caseStatus) public {\r\n        require(cases[firNumber].firNumber != bytes32(0), \"Case not found\");\r\n        require(cases[firNumber].isActive, \"Case is closed\");\r\n\r\n        CaseData storage c = cases[firNumber];\r\n        c.caseStatus = caseStatus;\r\n\r\n        emit CaseUpdated(firNumber, caseStatus, block.timestamp);\r\n    }\r\n\r\n    // Close the case\r\n    function closeCase(bytes32 firNumber) public {\r\n        require(cases[firNumber].firNumber != bytes32(0), \"Case not found\");\r\n        require(cases[firNumber].isActive, \"Case is already closed\");\r\n\r\n        CaseData storage c = cases[firNumber];\r\n        c.isActive = false;\r\n        c.caseStatus = \"Closed\";\r\n\r\n        emit CaseUpdated(firNumber, \"Closed\", block.timestamp);\r\n    }\r\n\r\n    // Function to verify the integrity of the case data hash\r\n    function verifyCaseHash(bytes32 firNumber, bytes32 newCaseDataHash) public view returns (bool) {\r\n        require(cases[firNumber].firNumber != bytes32(0), \"Case not found\");\r\n        \r\n        return cases[firNumber].caseDataHash == newCaseDataHash;  // Compare the hashes\r\n    }\r\n\r\n    // Function to retrieve the case hash and status\r\n    function getCase(bytes32 firNumber) \r\n        public \r\n        view \r\n        returns (\r\n            bytes32 fir,\r\n            bytes32 caseDataHash,\r\n            string memory status,\r\n            uint256 timestamp\r\n        ) \r\n    {\r\n        require(cases[firNumber].firNumber != bytes32(0), \"Case not found\");\r\n\r\n        CaseData memory c = cases[firNumber];\r\n        return (\r\n            c.firNumber,\r\n            c.caseDataHash,\r\n            c.caseStatus,\r\n            c.timestamp\r\n        );\r\n    }\r\n}\r\n",
  "sourcePath": "E:\\personalProjects\\blockHack\\contracts\\PoliceCaseManagement.sol",
  "compiler": {
    "name": "solc",
    "version": "0.8.21+commit.d9974bed.Emscripten.clang"
  },
  "schemaVersion": "3.4.16",
  "updatedAt": "2024-09-21T19:53:37.975Z",
  "networkType": "ethereum",
  "devdoc": {
    "kind": "dev",
    "methods": {},
    "version": 1
  },
  "userdoc": {
    "kind": "user",
    "methods": {},
    "version": 1
  }
}